:100000000C942A000C9447000C9447000C94470071
:100010000C9447000C9447000C9447000C94470044
:100020000C9447000C9447000C9447000C94B506C0
:100030000C9447000C9447000C9447000C94470024
:100040000C9447000C9447000C9447000C94470014
:100050000C94470011241FBECFE5D8E0DEBFCDBF12
:1000600010E0A0E6B0E0E4EDFEE002C005900D92E5
:10007000A23CB107D9F720E0A2ECB0E001C01D928C
:10008000AF3EB207E1F70E9473060C9468070C9428
:100090000000882359F02FEF39E698E121503040D5
:1000A0009040E1F700C000008150A9F70895982F13
:1000B0009770869586958695813021F130F0823053
:1000C000F1F1833009F458C00895662369F04BB309
:1000D00021E030E0B90102C0660F771F9A95E2F780
:1000E000CB01842B8BBB08954BB321E030E0B901E9
:1000F00002C0660F771F9A95E2F7CB0180958423A3
:100100008BBB0895662369F048B321E030E0B90164
:1001100002C0660F771F9A95E2F7CB01842B88BB4C
:10012000089548B321E030E0B90102C0660F771F9F
:100130009A95E2F7CB018095842388BB08956623C6
:1001400069F045B321E030E0B90102C0660F771FC6
:100150009A95E2F7CB01842B85BB089545B321E046
:1001600030E0B90102C0660F771F9A95E2F7CB0124
:100170008095842385BB0895662369F042B321E00E
:1001800030E0B90102C0660F771F9A95E2F7CB0104
:10019000842B82BB089542B321E030E0B90102C054
:1001A000660F771F9A95E2F7CB018095842382BB77
:1001B0000895982F9770869586958695813021F1C0
:1001C00030F08230F1F1833009F458C0089566238D
:1001D00069F04AB321E030E0B90102C0660F771F31
:1001E0009A95E2F7CB01842B8ABB08954AB321E0AC
:1001F00030E0B90102C0660F771F9A95E2F7CB0194
:10020000809584238ABB0895662369F047B321E073
:1002100030E0B90102C0660F771F9A95E2F7CB0173
:10022000842B87BB089547B321E030E0B90102C0B9
:10023000660F771F9A95E2F7CB018095842387BBE1
:100240000895662369F044B321E030E0B90102C0AB
:10025000660F771F9A95E2F7CB01842B84BB089534
:1002600044B321E030E0B90102C0660F771F9A95D0
:10027000E2F7CB018095842384BB0895662369F05F
:1002800041B321E030E0B90102C0660F771F9A95B3
:10029000E2F7CB01842B81BB089541B321E030E02C
:1002A000B90102C0660F771F9A95E2F7CB018095DE
:1002B000842381BB0895282F27708695869586957F
:1002C000813079F028F08230A9F08330E1F024C049
:1002D00089B390E002C0959587952A95E2F78170E1
:1002E000089586B390E002C0959587952A95E2F728
:1002F0008170089583B390E002C0959587952A9503
:10030000E2F78170089580B390E002C095958795DB
:100310002A95E2F78170089580E00895CF93C82F61
:10032000682F617082E00E945700C1FB662760F968
:1003300083E00E945700C2FB662760F984E00E94B8
:100340005700C3FB662760F985E00E945700CF91F4
:100350000895682F80E00E94570061E081E00E94CC
:1003600057008FE99FE00197F1F700C0000060E0BF
:1003700081E00E9457000895CF93C82F82958F7017
:100380000E948E0180E00E94A9018C2F8F700E9434
:100390008E0180E00E94A901CF91089561E080E084
:1003A0000E94D90061E081E00E94D90061E082E012
:1003B0000E94D90061E083E00E94D90061E084E0FE
:1003C0000E94D90061E085E00E94D90082E00E948D
:1003D000BC018FE097E20197F1F700C0000088E2CE
:1003E0000E94BC018FE097E20197F1F700C0000086
:1003F0008EE00E94BC018FE097E20197F1F700C008
:10040000000080E80E94BC018FE097E20197F1F7BD
:1004100000C000008CE00E94BC018FE097E20197D1
:10042000F1F700C0000081E00E94BC010895CF9365
:10043000C82F82958F700E948E0181E00E94A901D1
:100440008C2F8F700E948E0181E00E94A901CF91B4
:100450000895CF93C42FE82FF0E0E15AFF4F615089
:100460008081860F0E94BC018C2F0E941702CF91C1
:1004700008950F931F93CF93FC018081882359F037
:100480008F01C0E00E941702CF5FF801EC0FF11D51
:1004900080818111F7CFCF911F910F910895CF9354
:1004A000DF93EA01E82FF0E0E15AFF4F61508081CD
:1004B000860F0E94BC01CE010E943902DF91CF91CC
:1004C0000895AF92CF92EF920F938093EE006093D6
:1004D000ED004093EC002093EB000093EA00E092E3
:1004E000E900C092E800A092E70061E00E94D90014
:1004F00061E08091ED000E94D90061E08091EC0004
:100500000E94D90061E08091EB000E94D90060E078
:100510008091EA000E94D90060E08091E9000E9489
:10052000D90060E08091E8000E94D90060E08091ED
:10053000E7000E94D9000F91EF90CF90AF900895FF
:100540008091EA000E945B018111FACF8091E9005D
:100550000E945B018111F4CF8091E8000E945B0151
:100560008111EECF8091E7000E945B018111E8CFFD
:1005700061E08091EE000E94570060E08091ED0004
:100580000E94570060E08091EC000E94570060E0FC
:100590008091EB000E9457002FE788E391E0215003
:1005A00080409040E1F700C000008091EA000E9486
:1005B0005B018111B2C08091E9000E945B01811151
:1005C000AEC08091E8000E945B018111AAC08091B9
:1005D000E7000E945B018111A6C060E08091EE00FF
:1005E0000E94570061E08091ED000E94570060E09A
:1005F0008091EC000E94570060E08091EB000E9427
:1006000057002FE788E391E0215080409040E1F7C8
:1006100000C000008091EA000E945B01811185C04A
:100620008091E9000E945B01811181C08091E80006
:100630000E945B0181117DC08091E7000E945B01F7
:10064000811179C060E08091EE000E94570060E067
:100650008091ED000E94570061E08091EC000E94C3
:10066000570060E08091EB000E9457002FE788E37D
:1006700091E0215080409040E1F700C0000080915F
:10068000EA000E945B01811158C08091E9000E943C
:100690005B01811154C08091E8000E945B018111CF
:1006A00050C08091E7000E945B0181114CC060E066
:1006B0008091EE000E94570060E08091ED000E9462
:1006C000570060E08091EC000E94570061E080914B
:1006D000EB000E9457002FE788E391E02150804013
:1006E0009040E1F700C000008091EA000E945B01A9
:1006F00081112BC08091E9000E945B01811127C00C
:100700008091E8000E945B01811123C08091E70085
:100710000E945B0181111FC0089581E3089582E367
:10072000089583E3089581E4089584E3089585E3BB
:10073000089586E3089582E4089587E3089588E3A1
:10074000089589E3089583E408958AE2089580E393
:10075000089583E2089584E408959F92AF92BF9232
:10076000CF92DF92EF92FF920F931F93CF93DF937D
:10077000912CDD24D394C9ECD0E002EC10E0B92C2C
:10078000FD2C0F2EF7E0CF2EF02DE92C8091D30019
:10079000882309F4F0C09092D00044E650E06D2D1B
:1007A0008D2D0E944F024FE650E06AE082E00E94E9
:1007B0004F024BE950E06AE082E00E944F028AE07B
:1007C0008093D20078940F2EFAE0AF2EF02D809116
:1007D000D3008823D9F20E94A0028093E600F09211
:1007E000CF0090ED980F9A3008F0C1C06091D20010
:1007F0006131E0F56C3011F06F3011F4863338F769
:10080000482F82E00E9429026091D2008091E60088
:10081000E62FF0E0E854FF4F8083E1E0E60FE0933D
:10082000D200EB3011F0EE3069F4F0E0E854FF4F05
:1008300080836E5F6093D2004BE950E082E00E94BB
:100840004F020AC0E13141F4A092D2004BE950E0DE
:100850006A2D82E00E944F022FEF80E792E0215044
:1008600080409040E1F700C00000B1CF833209F032
:10087000AECFE2ECF0E09F2D8191811101C09E2D61
:10088000CE17DF07C9F7C092D1009093CF0099230C
:1008900009F49DCFF801608160536093E500828187
:1008A000880F8056982F990F990F890F9381905335
:1008B000890F8093E4008581880F8056982F990FC7
:1008C000990F890F96819053890F8093E3008CEDE7
:1008D00090E00E945B076091E40088ED90E00E9448
:1008E0005B076091E30084ED90E00E945B07FFEFFF
:1008F00024E38CE0F15020408040E1F700C000008C
:10090000F8948CE00E94BC018F2D0E94BC0147E747
:1009100050E06F2D8F2D0E944F02B092D1009FEFBB
:10092000E0E7F2E09150E040F040E1F700C0000065
:100930008EE20E9417028091D1008F5F8093D100D8
:10094000873068F38F2D0E94BC014FE750E06F2D78
:100950008F2D0E944F022FEF84E39CE021508040B6
:100960009040E1F700C00000B092D30030CF833256
:1009700009F02DCF7ECFDF91CF911F910F91FF9086
:10098000EF90DF90CF90BF90AF909F9008957894B4
:1009900061E088E00E9457000895F89460E088E0E4
:1009A0000E9457000895FF920F931F93CF93DF93F8
:1009B0008091D00081114EC045E850E061E081E0B7
:1009C0000E944F024091E500405D68E081E00E9496
:1009D00029024AE369E081E00E9429028091E40053
:1009E0004AE067EC70E090E00E941E078091E4000E
:1009F0008A3048F480E30E9417028091E400805D11
:100A00000E94170206C047EC50E06AE081E00E94B5
:100A10004F024AE36CE081E00E9429028091E300EA
:100A20004AE067EC70E090E00E941E078091E300CE
:100A30008A3048F480E30E9417028091E300805DD1
:100A40000E941702A6C047EC50E06DE081E00E94D2
:100A50004F029FC0813009F09CC00E94A002809389
:100A6000E6004DE850E061E081E00E944F0245E978
:100A700050E061E082E00E944F024091E200405D60
:100A800068E082E00E9429024AE369E082E00E9475
:100A900029028091E1004AE067EC70E090E00E945A
:100AA0001E078091E1008A3048F480E30E9417021B
:100AB0008091E100805D0E94170206C047EC50E083
:100AC0006AE082E00E944F024AE36CE082E00E940A
:100AD00029028091E0004AE067EC70E090E00E941B
:100AE0001E078091E0008A3048F480E30E941702DC
:100AF0008091E000805D0E94170206C047EC50E044
:100B00006DE082E00E944F028091E600813419F48A
:100B10000E94C7043EC0823419F40E94CD0439C03B
:100B20009091E200911108C09091E100911104C0F0
:100B30009091E000992311F0833459F5F89460E026
:100B400088E00E94570081E00E94BC018091E20091
:100B5000811116C08091E100811112C08091E000E6
:100B600081110EC082E08093D0001092CC001092D0
:100B7000CB004CE950E061E081E00E944F0202C0EE
:100B80001092D0001092E2001092E1001092E0006A
:100B90000FCF8091D000823009F040C08091CB000F
:100BA0009091CC00892BE9F41092D10061E080E1B2
:100BB0000E9457008FE097E20197F1F700C0000014
:100BC00060E080E10E9457008FE295E70197F1F71E
:100BD00000C000008091D1008F5F8093D1008035EC
:100BE00028F38091CB009091CC000196843191053F
:100BF00029F09093CC008093CB0004C01092CC00DD
:100C00001092CB000E94A0028093E600843409F683
:100C10001092D00081E00E94BC01CACE01E0102FEA
:100C2000C9ECD0E00F2EF7E0FF2EF02D8091D00020
:100C300081112DC00E94A0028093E600813499F4B6
:100C40001093D0008091E5008093E2008091E40051
:100C50008093E1008091E3008093E0007894612F1D
:100C600088E00E9457008091E6008A32F9F61093DE
:100C7000D3001093D000E2ECF0E01192EC17FD07E6
:100C8000E1F7F092D100802F0E94BC01CFCFDF911D
:100C9000CF911F910F91FF900895CF93DF938CED2B
:100CA00090E00E945307C82F8093E50088ED90E004
:100CB0000E945307D82F8093E40084ED90E00E94B7
:100CC00053078093E300C43638F4DD3338F491E001
:100CD0008D3328F490E003C091E001C091E0892FAA
:100CE000DF91CF9108950E94CE010F2EFFE1AF2E2C
:100CF000F02D0F2EFEE1CF2EF02D0F2EFDE1EF2E69
:100D0000F02D0CE12BE14AE169E188E10E946102EA
:100D10000E944D068093D30083B7836083BF89B759
:100D2000816089BF83E882BF61E080E10E94D900D1
:100D300061E088E00E94D90015BA18BA4DEA50E087
:100D400062E081E00E944F024CEB50E067E082E0FD
:100D50000E944F0282E00E94490081E00E94BC0193
:100D60000E94AD030E94D304FBCF1F920F920FB6D7
:100D70000F9211242F933F934F935F936F937F9321
:100D80008F939F93AF93BF93EF93FF938091CD0089
:100D90009091CE0001969093CE008093CD00843F39
:100DA00021E0920741F48091D00081112CC08EE0A7
:100DB0000E94BC0128C0883E934029F58091D00054
:100DC000811104C08CE00E94BC0119C08130B9F4CB
:100DD0008091E10081111AC08091E00081111AC058
:100DE0008091E200882359F081508093E2008CE3E7
:100DF00081508093E1008CE381508093E000109259
:100E0000CE001092CD0083E882BF07C09091E00031
:100E1000992371F38091E000EFCFFF91EF91BF91A3
:100E2000AF919F918F917F916F915F914F913F9182
:100E30002F910F900FBE0F901F901895BB274A302F
:100E400031F4992322F4BDE2909581959F4F0C9443
:100E50002A07BB27FB015527AA27880F991FAA1F1E
:100E6000A41710F0A41B83955051B9F7A05DAA33C5
:100E700008F0A95DA193009779F7B111B193119290
:100E8000CB010C944307DC01FC01672F71917723A0
:100E9000E1F7329704C07C916D9370836291AE1735
:100EA000BF07C8F30895E199FECF9FBB8EBBE09AC0
:100EB00099278DB30895262FE199FECF9FBB8EBB56
:100EC0002DBB0FB6F894E29AE19A0FBE01960895F1
:040ED000F894FFCFC4
:100ED40080C094D45345542054494D45523A00306F
:100EE4003A30303A303000534156494E472E005381
:100EF400415645440054494D45523A20005354410B
:100F040052543A200053544F503A2000444F4E4517
:100F14003A204558504F535552494E47004649458B
:100F24004C4442415345205345522E004C54442EC8
:020F34000000BB
:00000001FF
